:020000040000FA
:100000000A128A11D92F00308A000408840A820754
:100010000034013400340A34003464340034E834E9
:0E002000033410342734253464340A34003499
:1008C00064008001840A0406031900340406612CC4
:1008D0000C340A34083409340B340D340134003438
:1008E000F00083160313981C762C772C712C70085B
:1008F00083120313990008007E088A007F08820093
:100900000A128A117C240A128A118000840A0408BF
:100910007D0603190034FF0A0319FE0A802C5034A7
:1009200072346F346734723461346D34613420341E
:1009300049346E34693463346934613464346F34F7
:100940000A340034F4007408F2007208F300AC2C8E
:100950000130F2007208F307730884008313000863
:10096000031DB32CB42CA82C74087302F000F10101
:10097000F01BF1030800F800F701CF2C7808840081
:10098000831300080A128A1170240A128A11013096
:10099000F6007608F7070130F6007608F8077508C4
:1009A0007702031CD42CD52CBE2C0800F200813019
:1009B000831203139F008030831603139F00720875
:1009C000F00001300310F00DFF3E031DE22C031078
:1009D000700DF1007108831203139F040630F000BC
:1009E000F00BF02C0000831203139F1408000B304F
:1009F00083120313AF002F08A0002E08A2002D08B9
:100A0000A10030300A128A11F1260A128A11303000
:100A10000A128A11A2240A128A117008831203137F
:100A2000AF002F08F50030300A128A11BB240A12D9
:100A30008A11080083120313BD00BE01372D3E0842
:100A4000BB003B073D07BC003C0884008313000843
:100A5000AD00840A0008AE000A128A11F7240A12B7
:100A60008A11013083120313BB003B08BE073A080A
:100A70003E02031C3C2D3D2D1F2D0A300A128A1107
:100A800070240A128A110800F700F8016E2D780808
:100A90007707F50075088400831300080A128A118D
:100AA000D6240A128A11831203139F18582D592D28
:100AB000532D7808F50075077307F6007608840053
:100AC000831603131E0883138000840A8312031302
:100AD0001E0880000130F5007508F80774087802D8
:100AE000031C732D742D472D080078087904031911
:100AF0007A2D7B2DAA2DFD01FD0A892D01300310D1
:100B0000F80DF90DFF3E031D7F2D0130FC007C0820
:100B1000FD07F91F8C2D8D2D7E2D79087B02031D7D
:100B2000932D78087A02031C962D972D9D2D780819
:100B3000FA027908031CFB03FB0201300310F90CD5
:100B4000F80CFF3E031D9E2D0130FD02031DA92D53
:100B5000AA2D8D2D7B08F9007A08F8000800F50110
:100B6000F601700871040319B62DB72DEE2DF701AB
:100B7000F70AC52D01300310F00DF10DFF3E031DE6
:100B8000BB2D0130F4007408F707F11FC82DC92DE3
:100B9000BA2D01300310F50DF60DFF3E031DCA2DD1
:100BA00071087302031DD62D70087202031CD92D23
:100BB000DA2DE12D7008F2027108031CF303F30231
:100BC000751401300310F10CF00CFF3E031DE22DF3
:100BD0000130F702031DED2DEE2DC92D7608F10031
:100BE0007508F0000800003083120313A3000330DF
:100BF000A2008430A1000030A0000A128A113E2613
:100C00000A128A11A0300A128A11A2240A128A1129
:100C1000700883120313BF003F08F500A0300A12CA
:100C20008A11BB240A128A11473083120313BF00B2
:100C30003F08F3000830C0004008F40057300A12A3
:100C40008A1144250A128A11083083120313BF0047
:100C50003F08BA0047300A128A111A250A128A116F
:100C60005B3083120313C0004730BF00BF0B362E2A
:100C7000C00B362E142E0A128A1100288312031379
:100C80002308F3002208F2002108F1002008F000F8
:100C90000030F700F430F6002430F5000030F400A6
:100CA0000A128A118B260A128A1170088312031302
:100CB000A4007108A5007208A6007308A7000230FE
:100CC0000310A70CA60CA50CA40CFF3E031D602E60
:100CD0002408FF3EA80025080318013EFF3EA90096
:100CE000831603131815831603178715831203132E
:100CF0002808831603139900831203132908831607
:100D000003139A0018128312031398178316031300
:100D10000717981608000030FC000030FB00003078
:100D2000FA000030F90073087204710470040319AA
:100D30009A2E9B2EE82EFD01FD0AAB2E0130F80005
:100D40000310F00DF10DF20DF30DF80BA02E013094
:100D5000F8007808FD07F31FAE2EAF2E9E2E01304F
:100D6000F8000310F90DFA0DFB0DFC0DF80BB12E78
:100D700073087702031DC62E72087602031DC62E65
:100D800071087502031DC62E70087402031CC92E5B
:100D9000CA2ED92E7008F4027108031C710FF502D7
:100DA0007208031C720FF6027308031C730FF7021C
:100DB000791401300310F30CF20CF10CF00CFF3E2F
:100DC000031DDA2E0130FD02031DE72EE82EAF2EA3
:100DD0007C08F3007B08F2007A08F1007908F00043
:100DE000080083120313AB002130A3002308A600E0
:100DF000C22F25302C060319FE2EFF2E0B2F2C0898
:100E0000A3002B0884002308831380000130A30073
:100E10002308AB07C22FA7010130A007FF3020072E
:100E200084000A128A1103200A128A11AC00A3005E
:100E3000A4012408003A03191E2FC22F2308003AE8
:100E40000319D42F643A0319292F0D3A0319292FB6
:100E5000C22F2608840083130008A900840A000812
:100E6000AA000230A3002308A607AA1F382F392F93
:100E7000422F0330A3002308A704A909AA09A90A3D
:100E80000319AA0AAC01AC0A2C08A3002307013EEF
:100E900084000A128A1103200A128A11A4000A127D
:100EA0008A1103200A128A11A50025082A02031DAF
:100EB0005B2F2408290203185E2F5F2F602F6A2FF3
:100EC0000130A3002308AC0705302C06031D692F51
:100ED0006A2F442F2708033903196F2F702F7B2F98
:100EE0002D30A3002B0884002308831380000130D9
:100EF000A3002308AB072C08A3002308A800B92FE0
:100F00000A30F8000030F9002808A3002307013E4A
:100F100084000A128A1103200A128A11F0000A12B0
:100F20008A1103200A128A11F1002A08F300290805
:100F3000F2000A128A11AF250A128A117108FB0009
:100F40007008FA000A128A1175250A128A117808A7
:100F5000303E83120313A4002408AC002C08A30025
:100F60002B0884002308831380000130A30023088A
:100F7000AB07FF30A3002308A807280A031DC12FD1
:100F8000C22F802F0130A007FF30200784000A12F3
:100F90008A1103200A128A11A3002308AC002C082E
:100FA000031DD32FD42FF92E2B0884008313800127
:100FB00008008313B330FD000430FE008F30FF00C3
:100FC000A03084000A128A1180240A128A115F302C
:100FD000FD000430FE006830FF00573084000A1224
:100FE0008A1180240A128A114130840057300A1273
:100FF0008A1160240A128A1183010A128A11F32DC0
:04400E00F224FF3F5A
:00000001FF
