:020000040000FA
:100000000A128A11D92F00308A000408840A820754
:100010000034013400340A34003464340034E834E9
:0E002000033410342734253464340A34003499
:1008BE0064008001840A0406031900340406602CC7
:1008CE000C340A34083409340B340D34013400343A
:1008DE00F00083160313981C752C762C702C700860
:1008EE0083120313990008007E088A007F08820095
:1008FE000A128A117B240A128A118000840A0408C3
:10090E007D0603190034FF0A0319FE0A7F2C5034AA
:10091E0072346F346734723461346D346134203420
:10092E0049346E34693463346934613464346F34F9
:10093E000A340034F4007408F2007208F300AB2C91
:10094E000130F2007208F307730884008313000865
:10095E00031DB22CB32CA72C74087302F000F10106
:10096E00F01BF1030800F800F701CE2C7808840084
:10097E00831300080A128A116F240A128A11013099
:10098E00F6007608F7070130F6007608F8077508C6
:10099E007702031CD32CD42CBD2C0800F20081301E
:1009AE00831203139F008030831603139F00720877
:1009BE00F00001300310F00DFF3E031DE12C03107B
:1009CE00700DF1007108831203139F040630F000BE
:1009DE00F00BEF2C0000831203139F1408000B3052
:1009EE0083120313AF002F08A0002E08A2002D08BB
:1009FE00A10030300A128A11F1260A128A11303003
:100A0E000A128A11A1240A128A1170088312031382
:100A1E00AF002F08F50030300A128A11BA240A12DC
:100A2E008A11080083120313BD00BE01362D3E0845
:100A3E00BB003B073D07BC003C0884008313000845
:100A4E00AD00840A0008AE000A128A11F6240A12BA
:100A5E008A11013083120313BB003B08BE073A080C
:100A6E003E02031C3B2D3C2D1E2D0A300A128A110C
:100A7E006F240A128A110800F700F8016D2D78080C
:100A8E007707F50075088400831300080A128A118F
:100A9E00D5240A128A11831203139F18572D582D2D
:100AAE00522D7808F50075077307F6007608840056
:100ABE00831603131E0883138000840A8312031304
:100ACE001E0880000130F5007508F80774087802DA
:100ADE00031C722D732D462D080078087904031916
:100AEE00792D7A2DA92DFD01FD0A882D01300310D7
:100AFE00F80DF90DFF3E031D7E2D0130FC007C0824
:100B0E00FD07F91F8B2D8C2D7D2D79087B02031D82
:100B1E00922D78087A02031C952D962D9C2D78081F
:100B2E00FA027908031CFB03FB0201300310F90CD7
:100B3E00F80CFF3E031D9D2D0130FD02031DA82D57
:100B4E00A92D8C2D7B08F9007A08F8000800F50114
:100B5E00F601700871040319B52DB62DED2DF701B0
:100B6E00F70AC42D01300310F00DF10DFF3E031DE9
:100B7E00BA2D0130F4007408F707F11FC72DC82DE8
:100B8E00B92D01300310F50DF60DFF3E031DC92DD5
:100B9E0071087302031DD52D70087202031CD82D27
:100BAE00D92DE02D7008F2027108031CF303F30235
:100BBE00751401300310F10CF00CFF3E031DE12DF6
:100BCE000130F702031DEC2DED2DC82D7608F10036
:100BDE007508F0000800003083120313A3000330E1
:100BEE00A2008430A1000030A0000A128A113E2615
:100BFE000A128A11A0300A128A11A1240A128A112D
:100C0E00700883120313BF003F08F500A0300A12CC
:100C1E008A11BA240A128A11473083120313BF00B5
:100C2E003F08F3000830C0004008F40057300A12A5
:100C3E008A1143250A128A11083083120313BF004A
:100C4E003F08BA0047300A128A1119250A128A1172
:100C5E00273083120313C0005430BF00BF0B352E54
:100C6E00C00B352E0000132E0A128A110028831293
:100C7E0003132308F3002208F2002108F1002008D4
:100C8E00F0000030F700F430F6002430F5000030AC
:100C9E00F4000A128A118B260A128A117008831226
:100CAE000313A4007108A5007208A6007308A7001C
:100CBE0002300310A70CA60CA50CA40CFF3E031DBE
:100CCE00602E2408FF3EA80025080318013EFF3EB3
:100CDE00A90083160313181583160317871583129D
:100CEE00031328088316031399008312031329088C
:100CFE00831603139A001812831203139817831680
:100D0E0003130717981608000030FC000030FB0094
:100D1E000030FA000030F900730872047104700498
:100D2E0003199A2E9B2EE82EFD01FD0AAB2E0130E3
:100D3E00F8000310F00DF10DF20DF30DF80BA02ECF
:100D4E000130F8007808FD07F31FAE2EAF2E9E2E51
:100D5E000130F8000310F90DFA0DFB0DFC0DF80B28
:100D6E00B12E73087702031DC62E72087602031D7C
:100D7E00C62E71087502031DC62E70087402031C60
:100D8E00C92ECA2ED92E7008F4027108031C710FD9
:100D9E00F5027208031C720FF6027308031C730F20
:100DAE00F702791401300310F30CF20CF10CF00C75
:100DBE00FF3E031DDA2E0130FD02031DE72EE82E45
:100DCE00AF2E7C08F3007B08F2007A08F100790858
:100DDE00F000080083120313AB002130A300230898
:100DEE00A600C22F25302C060319FE2EFF2E0B2F28
:100DFE002C08A3002B0884002308831380000130E5
:100E0E00A3002308AB07C22FA7010130A007FF30B4
:100E1E00200784000A128A1103200A128A11AC00DC
:100E2E00A300A4012408003A03191E2FC22F230881
:100E3E00003A0319D42F643A0319292F0D3A0319D6
:100E4E00292FC22F2608840083130008A900840AC4
:100E5E000008AA000230A3002308A607AA1F382FF5
:100E6E00392F422F0330A3002308A704A909AA098A
:100E7E00A90A0319AA0AAC01AC0A2C08A30023077D
:100E8E00013E84000A128A1103200A128A11A4005C
:100E9E000A128A1103200A128A11A50025082A02B5
:100EAE00031D5B2F2408290203185E2F5F2F602F6E
:100EBE006A2F0130A3002308AC0705302C06031D52
:100ECE00692F6A2F442F2708033903196F2F702FAC
:100EDE007B2F2D30A3002B08840023088313800062
:100EEE000130A3002308AB072C08A3002308A80099
:100EFE00B92F0A30F8000030F9002808A3002307A4
:100F0E00013E84000A128A1103200A128A11F0008F
:100F1E000A128A1103200A128A11F1002A08F3001C
:100F2E002908F2000A128A11AE250A128A117108D6
:100F3E00FB007008FA000A128A1174250A128A112F
:100F4E007808303E83120313A4002408AC002C084A
:100F5E00A3002B0884002308831380000130A30014
:100F6E002308AB07FF30A3002308A807280A031D98
:100F7E00C12FC22F802F0130A007FF302007840021
:100F8E000A128A1103200A128A11A3002308AC0048
:100F9E002C08031DD32FD42FF92E2B088400831376
:100FAE00800108008313B330FD000430FE008E3044
:100FBE00FF00A03084000A128A117F240A128A11BF
:100FCE005F30FD000430FE006730FF0057308400B4
:100FDE000A128A117F240A128A1141308400573076
:100FEE000A128A115F240A128A1183010A128A11C7
:020FFE00F22DD2
:04400E00F224FF3F5A
:00000001FF
