:020000040000FA
:100000000A128A11E82F00308A000408840A820745
:0A0010000034253464340A3400344F
:100D6A00483465346C346C346F340A340034F0001F
:100D7A0083160313981CC22EC32EBD2E700883122D
:100D8A000313990008007E088A007F0882000A126D
:100D9A008A11C8260A128A118000840A04087D066C
:100DAA0003190034FF0A0319FE0ACC2EF400740852
:100DBA00F2007208F300E52E0130F2007208F30720
:100DCA007308840083130008031DEC2EED2EE12E18
:100DDA0074087302F000F101F01BF103080083129A
:100DEA0003132308F3002208F2002108F100200867
:100DFA00F0000030F7007A30F6001230F5000030CB
:100E0A00F4000A128A1182270A128A1170088312C0
:100E1A000313A4007108A5007208A6007308A700AE
:100E2A0004300310A70CA60CA50CA40CFF3E031D4E
:100E3A00162F2408FF3EA8002808A90083160313CA
:100E4A00181583120313290883160313990018121D
:100E5A0083120313981783160313071798160800AB
:100E6A00831603130F08003083120313A300003004
:100E7A00A2002530A1008030A0000A128A11F426AF
:100E8A000A128A1183120313AD015B2F2D082E3E1D
:100E9A008400831300080A128A11BC260A128A11D6
:100EAA00013083120313AA002A08AD072E300A1252
:100EBA008A11DB260A128A11831203132D08AA004B
:100ECA00AB0171082B02031D6C2F70082A02031C48
:100EDA006F2F702F4B2F0B3083120313AC00263069
:100EEA00AB005D30AA00AA0B782FAB0B782FAC0BA6
:100EFA00782F472F0A128A1100280030FC00003090
:100F0A00FB000030FA000030F90073087204710423
:100F1A0070040319912F922FDF2FFD01FD0AA22FD2
:100F2A000130F8000310F00DF10DF20DF30DF80B7E
:100F3A00972F0130F8007808FD07F31FA52FA62F79
:100F4A00952F0130F8000310F90DFA0DFB0DFC0D79
:100F5A00F80BA82F73087702031DBD2F72087602BB
:100F6A00031DBD2F71087502031DBD2F7008740281
:100F7A00031CC02FC12FD02F7008F4027108031C64
:100F8A00710FF5027208031C720FF6027308031C34
:100F9A00730FF702791401300310F30CF20CF10C01
:100FAA00F00CFF3E031DD12F0130FD02031DDE2F81
:100FBA00DF2FA62F7C08F3007B08F2007A08F100E5
:100FCA007908F000080083133530FD000630FE0072
:100FDA00B530FF002E3084000A128A11CC260A127C
:100FEA008A11B501B601B701B801B901BA01830185
:060FFA000A128A11352FD6
:04400E00F22CFF3F52
:00000001FF
