:020000040000FA
:100000000A128A11F62F00308A000408840A820737
:0A0010000034253464340A3400344F
:100F78007708F3007608F200F001F101FC308312E3
:100F880003138F0017308E009010101290128316E2
:100F980003130C14831203130C100B178B17101464
:100FA8000800831603130F14871183120313871184
:100FB8000630FA001330F900AD30F800F80BE22FD4
:100FC800F90BE22FFA0BE22FE92FE830F600033095
:100FD800F7000A128A11BC270A128A11F22F0A1284
:100FE8008A110028F001F101F201F301F401F50181
:080FF80083010A128A11D52FB2
:04400E00F22CFF3F52
:00000001FF
