:020000040000FA
:100000000A128A11D92F00308A000408840A820754
:100010000034013400340A34003464340034E834E9
:0E002000033410342734253464340A34003499
:1008A20064008001840A0406031900340406522CF1
:1008B2000C340A34083409340B340D340134003456
:1008C200F00083160313981C672C682C622C7008A6
:1008D20083120313990008007E088A007F088200B1
:1008E2000A128A116D240A128A118000840A0408ED
:1008F2007D0603190034FF0A0319FE0A712C5034D5
:1009020072346F346734723461346D34613420343C
:1009120049346E34693463346934613464346F3415
:100922000A340034F4007408F2007208F3009D2CBB
:100932000130F2007208F307730884008313000881
:10094200031DA42CA52C992C74087302F000F1014C
:10095200F01BF1030800F800F701C02C78088400AE
:10096200831300080A128A1161240A128A110130C3
:10097200F6007608F7070130F6007608F8077508E2
:100982007702031CC52CC62CAF2C0800F200813064
:10099200831203139F008030831603139F00720893
:1009A200F00001300310F00DFF3E031DD32C0310A5
:1009B200700DF1007108831203139F040630F000DA
:1009C200F00BE12C0000831203139F1408000B307C
:1009D20083120313AF002F08A0002E08A2002D08D7
:1009E200A10030300A128A11F1260A128A1130301F
:1009F2000A128A1193240A128A11700883120313AD
:100A0200AF002F08F50030300A128A11AC240A1206
:100A12008A11080083120313BD00BE01282D3E086F
:100A2200BB003B073D07BC003C0884008313000861
:100A3200AD00840A0008AE000A128A11E8240A12E4
:100A42008A11013083120313BB003B08BE073A0828
:100A52003E02031C2D2D2E2D102D0A300A128A1152
:100A620061240A128A110800F700F8015F2D780844
:100A72007707F50075088400831300080A128A11AB
:100A8200C7240A128A11831203139F18492D4A2D73
:100A9200442D7808F50075077307F6007608840080
:100AA200831603131E0883138000840A8312031320
:100AB2001E0880000130F5007508F80774087802F6
:100AC200031C642D652D382D08007808790403195C
:100AD2006B2D6C2D9B2DFD01FD0A7A2D013003102B
:100AE200F80DF90DFF3E031D702D0130FC007C084E
:100AF200FD07F91F7D2D7E2D6F2D79087B02031DC9
:100B0200842D78087A02031C872D882D8E2D780873
:100B1200FA027908031CFB03FB0201300310F90CF3
:100B2200F80CFF3E031D8F2D0130FD02031D9A2D8F
:100B32009B2D7E2D7B08F9007A08F8000800F5014C
:100B4200F601700871040319A72DA82DDF2DF701F6
:100B5200F70AB62D01300310F00DF10DFF3E031D13
:100B6200AC2D0130F4007408F707F11FB92DBA2D2E
:100B7200AB2D01300310F50DF60DFF3E031DBB2D0D
:100B820071087302031DC72D70087202031CCA2D5F
:100B9200CB2DD22D7008F2027108031CF303F3026D
:100BA200751401300310F10CF00CFF3E031DD32D20
:100BB2000130F702031DDE2DDF2DBA2D7608F1007C
:100BC2007508F0000800831203132308F3002208BB
:100BD200F2002108F1002008F0000030F700F430A4
:100BE200F6002430F5000030F4000A128A118B2638
:100BF2000A128A11700883120313A4007108A50057
:100C02007208A6007308A70002300310A70CA60CF6
:100C1200A50CA40CFF3E031D062E2408FF3EA800CF
:100C220025080318013EFF3EA90083160313181579
:100C320083160317871583120313280883160313D9
:100C42009900831203132908831603139A001812BA
:100C520083120313981783160313071798160800B5
:100C6200003083120313A3000330A2008430A100DA
:100C72000030A0000A128A11E4250A128A11A0305B
:100C82000A128A1193240A128A117008831203131A
:100C9200BF003F08F500A0300A128A11AC240A12E4
:100CA2008A11831603138710071183120313871403
:100CB20007154830BF003F08F3000830C000400865
:100CC200F40058300A128A1135250A128A11831249
:100CD200031307110830BF003F08BA0048300A1258
:100CE2008A110B250A128A1183120313871003300B
:100CF20083120313C1000830C0007630BF00BF0B5F
:100D0200802EC00B802EC10B802E0000562E0A12A0
:100D12008A1100280030FC000030FB000030FA008D
:100D22000030F900730872047104700403199A2EDA
:100D32009B2EE82EFD01FD0AAB2E0130F8000310B8
:100D4200F00DF10DF20DF30DF80BA02E0130F800AD
:100D52007808FD07F31FAE2EAF2E9E2E0130F8004D
:100D62000310F90DFA0DFB0DFC0DF80BB12E7308F3
:100D72007702031DC62E72087602031DC62E710865
:100D82007502031DC62E70087402031CC92ECA2EDA
:100D9200D92E7008F4027108031C710FF502720853
:100DA200031C720FF6027308031C730FF702791407
:100DB20001300310F30CF20CF10CF00CFF3E031D9A
:100DC200DA2E0130FD02031DE72EE82EAF2E7C083D
:100DD200F3007B08F2007A08F1007908F0000800BD
:100DE20083120313AB002130A3002308A600C22FF5
:100DF20025302C060319FE2EFF2E0B2F2C08A300E4
:100E02002B0884002308831380000130A3002308E9
:100E1200AB07C22FA7010130A007FF3020078400D3
:100E22000A128A1103200A128A11AC00A300A4013B
:100E32002408003A03191E2FC22F2308003A03196F
:100E4200D42F643A0319292F0D3A0319292FC22FDF
:100E52002608840083130008A900840A0008AA0057
:100E62000230A3002308A607AA1F382F392F422FCA
:100E72000330A3002308A704A909AA09A90A031990
:100E8200AA0AAC01AC0A2C08A3002307013E840085
:100E92000A128A1103200A128A11A4000A128A1164
:100EA20003200A128A11A50025082A02031D5B2FBE
:100EB2002408290203185E2F5F2F602F6A2F01304A
:100EC200A3002308AC0705302C06031D692F6A2FE7
:100ED200442F2708033903196F2F702F7B2F2D30D2
:100EE200A3002B0884002308831380000130A30091
:100EF2002308AB072C08A3002308A800B92F0A3047
:100F0200F8000030F9002808A3002307013E8400FE
:100F12000A128A1103200A128A11F0000A128A1197
:100F220003200A128A11F1002A08F3002908F200AC
:100F32000A128A11A0250A128A117108FB00700890
:100F4200FA000A128A1166250A128A117808303EBE
:100F520083120313A4002408AC002C08A3002B085E
:100F620084002308831380000130A3002308AB0709
:100F7200FF30A3002308A807280A031DC12FC22F90
:100F8200802F0130A007FF30200784000A128A1147
:100F920003200A128A11A3002308AC002C08031DA7
:100FA200D32FD42FF92E2B0884008313800108003D
:100FB2008313B330FD000430FE008030FF00A03008
:100FC20084000A128A1171240A128A116030FD000B
:100FD2000430FE005930FF00583084000A128A1192
:100FE20071240A128A114230840058300A128A117E
:0E0FF20051240A128A1183010A128A11312E2B
:04400E00F224FF3F5A
:00000001FF
