:020000040000FA
:100000000A128A11E62F00308A000408840A820747
:100010000034013400340A34003464340034E834E9
:0E002000033410342734253464340A34003499
:1008D80064008001840A04060319003404066D2CA0
:1008E800F00083160313981C7A2C7B2C752C700847
:1008F80083120313990008007E088A007F0882008B
:100908000A128A1180240A128A118000840A0408B3
:100918007D0603190034FF0A0319FE0A842CF4002B
:100928007408F2007208F3009D2C0130F20072087E
:10093800F3077308840083130008031DA42CA52C57
:10094800992C74087302F000F101F01BF103080000
:10095800F800F701C02C78088400831300080A12F5
:100968008A1174240A128A110130F6007608F707F2
:100978000130F6007608F80775087702031CC52CC5
:10098800C62CAF2C0800503472346F34673472347C
:1009980061346D346134203449346E3469346334DD
:1009A8006934613464346F3420340A3400340C34CC
:1009B8000A3408340B340D34043403340134F2009F
:1009C8008130831203139F008030831603139F0026
:1009D8007208F00001300310F00DFF3E031DEF2CEC
:1009E8000310700DF1007108831203139F04273060
:1009F800F000F00BFD2C002D831203139F14080048
:100A08000B3083120313AF002F08A0002E08A2009A
:100A18002D08A10030300A128A11FE260A128A1106
:100A280030300A128A1193240A128A11700883122C
:100A38000313AF002F08F50030300A128A11AC24D6
:100A48000A128A11080083120313BD00BE01442D47
:100A58003E08BB003B073D07BC003C0884008313ED
:100A68000008AD00840A0008AE000A128A110425A5
:100A78000A128A11013083120313BB003B08BE0718
:100A88003A083E02031C492D4A2D2C2D0A300A1221
:100A98008A1174240A128A110800F700F8017B2DC4
:100AA80078087707F50075088400831300080A1290
:100AB8008A11E3240A128A11831203139F18652DE1
:100AC800662D602D7808F50075077307F60076081F
:100AD8008400831603131E0883138000840A83127C
:100AE80003131E0880000130F5007508F807740824
:100AF8007802031C802D812D542D08007808790474
:100B08000319872D882DB72DFD01FD0A962D01307B
:100B18000310F80DF90DFF3E031D8C2D0130FC006C
:100B28007C08FD07F91F992D9A2D8B2D79087B02DA
:100B3800031DA02D78087A02031CA32DA42DAA2D2D
:100B48007808FA027908031CFB03FB020130031042
:100B5800F90CF80CFF3E031DAB2D0130FD02031DFF
:100B6800B62DB72D9A2D7B08F9007A08F8000800F1
:100B7800831203132308F3002208F2002108F1006E
:100B88002008F0000030F700F430F6002430F500BB
:100B98000030F4000A128A1198260A128A11700885
:100BA80083120313A4007108A5007208A600730835
:100BB800A70004300310A70CA60CA50CA40CFF3E3C
:100BC800031DDE2D2408FF3EA8002808A90083166F
:100BD80003131815831203132908831603139900A6
:100BE80018128312031398178316031307179816FE
:100BF8000800F501F601700871040319042E052E8A
:100C08003C2EF701F70A132E01300310F00DF10DF9
:100C1800FF3E031D092E0130F4007408F707F11F89
:100C2800162E172E082E01300310F50DF60DFF3E77
:100C3800031D182E71087302031D242E70087202FA
:100C4800031C272E282E2F2E7008F2027108031C71
:100C5800F303F302751401300310F10CF00CFF3E9E
:100C6800031D302E0130F702031D3B2E3C2E172E9C
:100C78007608F1007508F0000800003083120313AD
:100C8800A3000030A200E130A1000030A0000A1249
:100C98008A11BC250A128A1142300A128A11932439
:100CA8000A128A11700883120313BF003F08F50067
:100CB80042300A128A11AC240A128A1183160313CD
:100CC80087108312031387146030BF003F08F300B6
:100CD8000830C0004008F40056300A128A11512525
:100CE8000A128A11083083120313BF003F08BA00A2
:100CF80060300A128A1127250A128A1183120313F7
:100D08008710033083120313C1000830C000763007
:100D1800BF00BF0B8D2EC00B8D2EC10B8D2E00007A
:100D2800652E0A128A1100280030FC000030FB00F2
:100D38000030FA000030F90073087204710470047E
:100D48000319A72EA82EF52EFD01FD0AB82E013095
:100D5800F8000310F00DF10DF20DF30DF80BAD2EA8
:100D68000130F8007808FD07F31FBB2EBC2EAB2E10
:100D78000130F8000310F90DFA0DFB0DFC0DF80B0E
:100D8800BE2E73087702031DD32E72087602031D48
:100D9800D32E71087502031DD32E70087402031C2C
:100DA800D62ED72EE62E7008F4027108031C710F98
:100DB800F5027208031C720FF6027308031C730F06
:100DC800F702791401300310F30CF20CF10CF00C5B
:100DD800FF3E031DE72E0130FD02031DF42EF52E04
:100DE800BC2E7C08F3007B08F2007A08F100790831
:100DF800F000080083120313AB002130A30023087E
:100E0800A600CF2F25302C0603190B2F0C2F182FD7
:100E18002C08A3002B0884002308831380000130CA
:100E2800A3002308AB07CF2FA7010130A007FF308D
:100E3800200784000A128A1103200A128A11AC00C2
:100E4800A300A4012408003A03192B2FCF2F23084D
:100E5800003A0319E12F643A0319362F0D3A0319A2
:100E6800362FCF2F2608840083130008A900840A90
:100E78000008AA000230A3002308A607AA1F452FCE
:100E8800462F4F2F0330A3002308A704A909AA0956
:100E9800A90A0319AA0AAC01AC0A2C08A300230763
:100EA800013E84000A128A1103200A128A11A40042
:100EB8000A128A1103200A128A11A50025082A029B
:100EC800031D682F2408290203186B2F6C2F6D2F20
:100ED800772F0130A3002308AC0705302C06031D2B
:100EE800762F772F512F2708033903197C2F7D2F51
:100EF800882F2D30A3002B0884002308831380003B
:100F08000130A3002308AB072C08A3002308A8007E
:100F1800C62F0A30F8000030F9002808A30023077C
:100F2800013E84000A128A1103200A128A11F00075
:100F38000A128A1103200A128A11F1002A08F30002
:100F48002908F2000A128A11FD250A128A1171086D
:100F5800FB007008FA000A128A1182250A128A1107
:100F68007808303E83120313A4002408AC002C0830
:100F7800A3002B0884002308831380000130A300FA
:100F88002308AB07FF30A3002308A807280A031D7E
:100F9800CE2FCF2F8D2F0130A007FF3020078400E0
:100FA8000A128A1103200A128A11A3002308AC002E
:100FB8002C08031DE02FE12F062F2B088400831334
:100FC8008001080083135E30FD000430FE00C73046
:100FD800FF00423084000A128A1184240A128A11FE
:100FE8005E30840070300A128A116C240A128A1149
:080FF80083010A128A11412E47
:04400E00F23CFF3F42
:00000001FF
